{
  "contractName": "Givingztoken",
  "abi": [
    {
      "inputs": [],
      "stateMutability": "nonpayable",
      "type": "constructor"
    },
    {
      "anonymous": false,
      "inputs": [
        {
          "indexed": true,
          "internalType": "address",
          "name": "owner",
          "type": "address"
        },
        {
          "indexed": true,
          "internalType": "address",
          "name": "spender",
          "type": "address"
        },
        {
          "indexed": false,
          "internalType": "uint256",
          "name": "value",
          "type": "uint256"
        }
      ],
      "name": "Approval",
      "type": "event"
    },
    {
      "anonymous": false,
      "inputs": [
        {
          "indexed": true,
          "internalType": "address",
          "name": "from",
          "type": "address"
        },
        {
          "indexed": true,
          "internalType": "address",
          "name": "to",
          "type": "address"
        },
        {
          "indexed": false,
          "internalType": "uint256",
          "name": "value",
          "type": "uint256"
        }
      ],
      "name": "Transfer",
      "type": "event"
    },
    {
      "inputs": [],
      "name": "_owner",
      "outputs": [
        {
          "internalType": "address",
          "name": "",
          "type": "address"
        }
      ],
      "stateMutability": "view",
      "type": "function",
      "constant": true
    },
    {
      "inputs": [
        {
          "internalType": "address",
          "name": "owner",
          "type": "address"
        },
        {
          "internalType": "address",
          "name": "spender",
          "type": "address"
        }
      ],
      "name": "allowance",
      "outputs": [
        {
          "internalType": "uint256",
          "name": "",
          "type": "uint256"
        }
      ],
      "stateMutability": "view",
      "type": "function",
      "constant": true
    },
    {
      "inputs": [
        {
          "internalType": "address",
          "name": "spender",
          "type": "address"
        },
        {
          "internalType": "uint256",
          "name": "amount",
          "type": "uint256"
        }
      ],
      "name": "approve",
      "outputs": [
        {
          "internalType": "bool",
          "name": "",
          "type": "bool"
        }
      ],
      "stateMutability": "nonpayable",
      "type": "function"
    },
    {
      "inputs": [
        {
          "internalType": "address",
          "name": "account",
          "type": "address"
        }
      ],
      "name": "balanceOf",
      "outputs": [
        {
          "internalType": "uint256",
          "name": "",
          "type": "uint256"
        }
      ],
      "stateMutability": "view",
      "type": "function",
      "constant": true
    },
    {
      "inputs": [],
      "name": "decimals",
      "outputs": [
        {
          "internalType": "uint8",
          "name": "",
          "type": "uint8"
        }
      ],
      "stateMutability": "view",
      "type": "function",
      "constant": true
    },
    {
      "inputs": [
        {
          "internalType": "address",
          "name": "spender",
          "type": "address"
        },
        {
          "internalType": "uint256",
          "name": "subtractedValue",
          "type": "uint256"
        }
      ],
      "name": "decreaseAllowance",
      "outputs": [
        {
          "internalType": "bool",
          "name": "",
          "type": "bool"
        }
      ],
      "stateMutability": "nonpayable",
      "type": "function"
    },
    {
      "inputs": [
        {
          "internalType": "address",
          "name": "spender",
          "type": "address"
        },
        {
          "internalType": "uint256",
          "name": "addedValue",
          "type": "uint256"
        }
      ],
      "name": "increaseAllowance",
      "outputs": [
        {
          "internalType": "bool",
          "name": "",
          "type": "bool"
        }
      ],
      "stateMutability": "nonpayable",
      "type": "function"
    },
    {
      "inputs": [],
      "name": "isOwner",
      "outputs": [
        {
          "internalType": "bool",
          "name": "",
          "type": "bool"
        }
      ],
      "stateMutability": "view",
      "type": "function",
      "constant": true
    },
    {
      "inputs": [],
      "name": "name",
      "outputs": [
        {
          "internalType": "string",
          "name": "",
          "type": "string"
        }
      ],
      "stateMutability": "view",
      "type": "function",
      "constant": true
    },
    {
      "inputs": [],
      "name": "symbol",
      "outputs": [
        {
          "internalType": "string",
          "name": "",
          "type": "string"
        }
      ],
      "stateMutability": "view",
      "type": "function",
      "constant": true
    },
    {
      "inputs": [],
      "name": "totalSupply",
      "outputs": [
        {
          "internalType": "uint256",
          "name": "",
          "type": "uint256"
        }
      ],
      "stateMutability": "view",
      "type": "function",
      "constant": true
    },
    {
      "inputs": [
        {
          "internalType": "address",
          "name": "recipient",
          "type": "address"
        },
        {
          "internalType": "uint256",
          "name": "amount",
          "type": "uint256"
        }
      ],
      "name": "transfer",
      "outputs": [
        {
          "internalType": "bool",
          "name": "",
          "type": "bool"
        }
      ],
      "stateMutability": "nonpayable",
      "type": "function"
    },
    {
      "inputs": [
        {
          "internalType": "address",
          "name": "sender",
          "type": "address"
        },
        {
          "internalType": "address",
          "name": "recipient",
          "type": "address"
        },
        {
          "internalType": "uint256",
          "name": "amount",
          "type": "uint256"
        }
      ],
      "name": "transferFrom",
      "outputs": [
        {
          "internalType": "bool",
          "name": "",
          "type": "bool"
        }
      ],
      "stateMutability": "nonpayable",
      "type": "function"
    },
    {
      "inputs": [
        {
          "internalType": "address",
          "name": "recip",
          "type": "address"
        },
        {
          "internalType": "uint256",
          "name": "_amount",
          "type": "uint256"
        }
      ],
      "name": "mint",
      "outputs": [],
      "stateMutability": "nonpayable",
      "type": "function"
    }
  ],
  "bytecode": "0x60806040523480156200001157600080fd5b506040518060400160405280600681526020017f476976696e6700000000000000000000000000000000000000000000000000008152506040518060400160405280600281526020017f4756000000000000000000000000000000000000000000000000000000000000815250816003908051906020019062000096929190620000f9565b508060049080519060200190620000af929190620000f9565b50505033600560006101000a81548173ffffffffffffffffffffffffffffffffffffffff021916908373ffffffffffffffffffffffffffffffffffffffff1602179055506200020e565b8280546200010790620001a9565b90600052602060002090601f0160209004810192826200012b576000855562000177565b82601f106200014657805160ff191683800117855562000177565b8280016001018555821562000177579182015b828111156200017657825182559160200191906001019062000159565b5b5090506200018691906200018a565b5090565b5b80821115620001a55760008160009055506001016200018b565b5090565b60006002820490506001821680620001c257607f821691505b60208210811415620001d957620001d8620001df565b5b50919050565b7f4e487b7100000000000000000000000000000000000000000000000000000000600052602260045260246000fd5b61172a806200021e6000396000f3fe608060405234801561001057600080fd5b50600436106100ea5760003560e01c806370a082311161008c578063a457c2d711610066578063a457c2d714610261578063a9059cbb14610291578063b2bdfa7b146102c1578063dd62ed3e146102df576100ea565b806370a08231146101f55780638f32d59b1461022557806395d89b4114610243576100ea565b806323b872dd116100c857806323b872dd1461015b578063313ce5671461018b57806339509351146101a957806340c10f19146101d9576100ea565b806306fdde03146100ef578063095ea7b31461010d57806318160ddd1461013d575b600080fd5b6100f761030f565b604051610104919061137f565b60405180910390f35b61012760048036038101906101229190610f4e565b6103a1565b6040516101349190611364565b60405180910390f35b6101456103bf565b60405161015291906114c1565b60405180910390f35b61017560048036038101906101709190610eff565b6103c9565b6040516101829190611364565b60405180910390f35b6101936104ca565b6040516101a091906114dc565b60405180910390f35b6101c360048036038101906101be9190610f4e565b6104d3565b6040516101d09190611364565b60405180910390f35b6101f360048036038101906101ee9190610f4e565b61057f565b005b61020f600480360381019061020a9190610e9a565b6105d4565b60405161021c91906114c1565b60405180910390f35b61022d61061c565b60405161023a9190611364565b60405180910390f35b61024b610674565b604051610258919061137f565b60405180910390f35b61027b60048036038101906102769190610f4e565b610706565b6040516102889190611364565b60405180910390f35b6102ab60048036038101906102a69190610f4e565b6107fa565b6040516102b89190611364565b60405180910390f35b6102c9610818565b6040516102d69190611349565b60405180910390f35b6102f960048036038101906102f49190610ec3565b61083e565b60405161030691906114c1565b60405180910390f35b60606003805461031e90611625565b80601f016020809104026020016040519081016040528092919081815260200182805461034a90611625565b80156103975780601f1061036c57610100808354040283529160200191610397565b820191906000526020600020905b81548152906001019060200180831161037a57829003601f168201915b5050505050905090565b60006103b56103ae6108c5565b84846108cd565b6001905092915050565b6000600254905090565b60006103d6848484610a98565b6000600160008673ffffffffffffffffffffffffffffffffffffffff1673ffffffffffffffffffffffffffffffffffffffff16815260200190815260200160002060006104216108c5565b73ffffffffffffffffffffffffffffffffffffffff1673ffffffffffffffffffffffffffffffffffffffff168152602001908152602001600020549050828110156104a1576040517f08c379a000000000000000000000000000000000000000000000000000000000815260040161049890611401565b60405180910390fd5b6104be856104ad6108c5565b85846104b99190611569565b6108cd565b60019150509392505050565b60006012905090565b60006105756104e06108c5565b8484600160006104ee6108c5565b73ffffffffffffffffffffffffffffffffffffffff1673ffffffffffffffffffffffffffffffffffffffff16815260200190815260200160002060008873ffffffffffffffffffffffffffffffffffffffff1673ffffffffffffffffffffffffffffffffffffffff168152602001908152602001600020546105709190611513565b6108cd565b6001905092915050565b61058761061c565b6105c6576040517f08c379a00000000000000000000000000000000000000000000000000000000081526004016105bd90611421565b60405180910390fd5b6105d08282610d17565b5050565b60008060008373ffffffffffffffffffffffffffffffffffffffff1673ffffffffffffffffffffffffffffffffffffffff168152602001908152602001600020549050919050565b6000600560009054906101000a900473ffffffffffffffffffffffffffffffffffffffff1673ffffffffffffffffffffffffffffffffffffffff163373ffffffffffffffffffffffffffffffffffffffff1614905090565b60606004805461068390611625565b80601f01602080910402602001604051908101604052809291908181526020018280546106af90611625565b80156106fc5780601f106106d1576101008083540402835291602001916106fc565b820191906000526020600020905b8154815290600101906020018083116106df57829003601f168201915b5050505050905090565b600080600160006107156108c5565b73ffffffffffffffffffffffffffffffffffffffff1673ffffffffffffffffffffffffffffffffffffffff16815260200190815260200160002060008573ffffffffffffffffffffffffffffffffffffffff1673ffffffffffffffffffffffffffffffffffffffff168152602001908152602001600020549050828110156107d2576040517f08c379a00000000000000000000000000000000000000000000000000000000081526004016107c990611481565b60405180910390fd5b6107ef6107dd6108c5565b8585846107ea9190611569565b6108cd565b600191505092915050565b600061080e6108076108c5565b8484610a98565b6001905092915050565b600560009054906101000a900473ffffffffffffffffffffffffffffffffffffffff1681565b6000600160008473ffffffffffffffffffffffffffffffffffffffff1673ffffffffffffffffffffffffffffffffffffffff16815260200190815260200160002060008373ffffffffffffffffffffffffffffffffffffffff1673ffffffffffffffffffffffffffffffffffffffff16815260200190815260200160002054905092915050565b600033905090565b600073ffffffffffffffffffffffffffffffffffffffff168373ffffffffffffffffffffffffffffffffffffffff16141561093d576040517f08c379a000000000000000000000000000000000000000000000000000000000815260040161093490611461565b60405180910390fd5b600073ffffffffffffffffffffffffffffffffffffffff168273ffffffffffffffffffffffffffffffffffffffff1614156109ad576040517f08c379a00000000000000000000000000000000000000000000000000000000081526004016109a4906113c1565b60405180910390fd5b80600160008573ffffffffffffffffffffffffffffffffffffffff1673ffffffffffffffffffffffffffffffffffffffff16815260200190815260200160002060008473ffffffffffffffffffffffffffffffffffffffff1673ffffffffffffffffffffffffffffffffffffffff168152602001908152602001600020819055508173ffffffffffffffffffffffffffffffffffffffff168373ffffffffffffffffffffffffffffffffffffffff167f8c5be1e5ebec7d5bd14f71427d1e84f3dd0314c0f7b2291e5b200ac8c7c3b92583604051610a8b91906114c1565b60405180910390a3505050565b600073ffffffffffffffffffffffffffffffffffffffff168373ffffffffffffffffffffffffffffffffffffffff161415610b08576040517f08c379a0000000000000000000000000000000000000000000000000000000008152600401610aff90611441565b60405180910390fd5b600073ffffffffffffffffffffffffffffffffffffffff168273ffffffffffffffffffffffffffffffffffffffff161415610b78576040517f08c379a0000000000000000000000000000000000000000000000000000000008152600401610b6f906113a1565b60405180910390fd5b610b83838383610e6b565b60008060008573ffffffffffffffffffffffffffffffffffffffff1673ffffffffffffffffffffffffffffffffffffffff16815260200190815260200160002054905081811015610c09576040517f08c379a0000000000000000000000000000000000000000000000000000000008152600401610c00906113e1565b60405180910390fd5b8181610c159190611569565b6000808673ffffffffffffffffffffffffffffffffffffffff1673ffffffffffffffffffffffffffffffffffffffff16815260200190815260200160002081905550816000808573ffffffffffffffffffffffffffffffffffffffff1673ffffffffffffffffffffffffffffffffffffffff1681526020019081526020016000206000828254610ca59190611513565b925050819055508273ffffffffffffffffffffffffffffffffffffffff168473ffffffffffffffffffffffffffffffffffffffff167fddf252ad1be2c89b69c2b068fc378daa952ba7f163c4a11628f55a4df523b3ef84604051610d0991906114c1565b60405180910390a350505050565b600073ffffffffffffffffffffffffffffffffffffffff168273ffffffffffffffffffffffffffffffffffffffff161415610d87576040517f08c379a0000000000000000000000000000000000000000000000000000000008152600401610d7e906114a1565b60405180910390fd5b610d9360008383610e6b565b8060026000828254610da59190611513565b92505081905550806000808473ffffffffffffffffffffffffffffffffffffffff1673ffffffffffffffffffffffffffffffffffffffff1681526020019081526020016000206000828254610dfa9190611513565b925050819055508173ffffffffffffffffffffffffffffffffffffffff16600073ffffffffffffffffffffffffffffffffffffffff167fddf252ad1be2c89b69c2b068fc378daa952ba7f163c4a11628f55a4df523b3ef83604051610e5f91906114c1565b60405180910390a35050565b505050565b600081359050610e7f816116c6565b92915050565b600081359050610e94816116dd565b92915050565b600060208284031215610eac57600080fd5b6000610eba84828501610e70565b91505092915050565b60008060408385031215610ed657600080fd5b6000610ee485828601610e70565b9250506020610ef585828601610e70565b9150509250929050565b600080600060608486031215610f1457600080fd5b6000610f2286828701610e70565b9350506020610f3386828701610e70565b9250506040610f4486828701610e85565b9150509250925092565b60008060408385031215610f6157600080fd5b6000610f6f85828601610e70565b9250506020610f8085828601610e85565b9150509250929050565b610f938161159d565b82525050565b610fa2816115af565b82525050565b6000610fb3826114f7565b610fbd8185611502565b9350610fcd8185602086016115f2565b610fd6816116b5565b840191505092915050565b6000610fee602383611502565b91507f45524332303a207472616e7366657220746f20746865207a65726f206164647260008301527f65737300000000000000000000000000000000000000000000000000000000006020830152604082019050919050565b6000611054602283611502565b91507f45524332303a20617070726f766520746f20746865207a65726f20616464726560008301527f73730000000000000000000000000000000000000000000000000000000000006020830152604082019050919050565b60006110ba602683611502565b91507f45524332303a207472616e7366657220616d6f756e742065786365656473206260008301527f616c616e636500000000000000000000000000000000000000000000000000006020830152604082019050919050565b6000611120602883611502565b91507f45524332303a207472616e7366657220616d6f756e742065786365656473206160008301527f6c6c6f77616e63650000000000000000000000000000000000000000000000006020830152604082019050919050565b6000611186602083611502565b91507f4f776e61626c653a2063616c6c6572206973206e6f7420746865206f776e65726000830152602082019050919050565b60006111c6602583611502565b91507f45524332303a207472616e736665722066726f6d20746865207a65726f20616460008301527f64726573730000000000000000000000000000000000000000000000000000006020830152604082019050919050565b600061122c602483611502565b91507f45524332303a20617070726f76652066726f6d20746865207a65726f2061646460008301527f72657373000000000000000000000000000000000000000000000000000000006020830152604082019050919050565b6000611292602583611502565b91507f45524332303a2064656372656173656420616c6c6f77616e63652062656c6f7760008301527f207a65726f0000000000000000000000000000000000000000000000000000006020830152604082019050919050565b60006112f8601f83611502565b91507f45524332303a206d696e7420746f20746865207a65726f2061646472657373006000830152602082019050919050565b611334816115db565b82525050565b611343816115e5565b82525050565b600060208201905061135e6000830184610f8a565b92915050565b60006020820190506113796000830184610f99565b92915050565b600060208201905081810360008301526113998184610fa8565b905092915050565b600060208201905081810360008301526113ba81610fe1565b9050919050565b600060208201905081810360008301526113da81611047565b9050919050565b600060208201905081810360008301526113fa816110ad565b9050919050565b6000602082019050818103600083015261141a81611113565b9050919050565b6000602082019050818103600083015261143a81611179565b9050919050565b6000602082019050818103600083015261145a816111b9565b9050919050565b6000602082019050818103600083015261147a8161121f565b9050919050565b6000602082019050818103600083015261149a81611285565b9050919050565b600060208201905081810360008301526114ba816112eb565b9050919050565b60006020820190506114d6600083018461132b565b92915050565b60006020820190506114f1600083018461133a565b92915050565b600081519050919050565b600082825260208201905092915050565b600061151e826115db565b9150611529836115db565b9250827fffffffffffffffffffffffffffffffffffffffffffffffffffffffffffffffff0382111561155e5761155d611657565b5b828201905092915050565b6000611574826115db565b915061157f836115db565b92508282101561159257611591611657565b5b828203905092915050565b60006115a8826115bb565b9050919050565b60008115159050919050565b600073ffffffffffffffffffffffffffffffffffffffff82169050919050565b6000819050919050565b600060ff82169050919050565b60005b838110156116105780820151818401526020810190506115f5565b8381111561161f576000848401525b50505050565b6000600282049050600182168061163d57607f821691505b6020821081141561165157611650611686565b5b50919050565b7f4e487b7100000000000000000000000000000000000000000000000000000000600052601160045260246000fd5b7f4e487b7100000000000000000000000000000000000000000000000000000000600052602260045260246000fd5b6000601f19601f8301169050919050565b6116cf8161159d565b81146116da57600080fd5b50565b6116e6816115db565b81146116f157600080fd5b5056fea2646970667358221220ce55d8c51af9e84a91b9b045b79e35bf1b7ddc6b47c9405aa8e8143963eed49364736f6c63430008000033",
  "immutableReferences": {},
  "source": "pragma solidity ^0.8.0;\nimport \"@openzeppelin/contracts/token/ERC20/ERC20.sol\";\nimport \"./Owner.sol\";\ncontract Givingztoken is ERC20 ,Owner{\n\n    constructor() ERC20(\"Giving\",\"GV\") Owner(){}\n\n    function mint(address recip,uint _amount) external onlyOwner {\n\n        _mint(recip,_amount);\n    }\n}",
  "sourcePath": "/home/mandrake/WORK/POC/contracts/Givingztoken.sol",
  "compiler": {
    "name": "solc",
    "version": "0.8.0+commit.c7dfd78e.Emscripten.clang"
  },
  "schemaVersion": "3.4.1",
  "updatedAt": "2021-06-21T17:16:36.621Z",
  "networkType": "ethereum",
  "devdoc": {
    "kind": "dev",
    "methods": {
      "allowance(address,address)": {
        "details": "See {IERC20-allowance}."
      },
      "approve(address,uint256)": {
        "details": "See {IERC20-approve}. Requirements: - `spender` cannot be the zero address."
      },
      "balanceOf(address)": {
        "details": "See {IERC20-balanceOf}."
      },
      "decimals()": {
        "details": "Returns the number of decimals used to get its user representation. For example, if `decimals` equals `2`, a balance of `505` tokens should be displayed to a user as `5,05` (`505 / 10 ** 2`). Tokens usually opt for a value of 18, imitating the relationship between Ether and Wei. This is the value {ERC20} uses, unless this function is overridden; NOTE: This information is only used for _display_ purposes: it in no way affects any of the arithmetic of the contract, including {IERC20-balanceOf} and {IERC20-transfer}."
      },
      "decreaseAllowance(address,uint256)": {
        "details": "Atomically decreases the allowance granted to `spender` by the caller. This is an alternative to {approve} that can be used as a mitigation for problems described in {IERC20-approve}. Emits an {Approval} event indicating the updated allowance. Requirements: - `spender` cannot be the zero address. - `spender` must have allowance for the caller of at least `subtractedValue`."
      },
      "increaseAllowance(address,uint256)": {
        "details": "Atomically increases the allowance granted to `spender` by the caller. This is an alternative to {approve} that can be used as a mitigation for problems described in {IERC20-approve}. Emits an {Approval} event indicating the updated allowance. Requirements: - `spender` cannot be the zero address."
      },
      "name()": {
        "details": "Returns the name of the token."
      },
      "symbol()": {
        "details": "Returns the symbol of the token, usually a shorter version of the name."
      },
      "totalSupply()": {
        "details": "See {IERC20-totalSupply}."
      },
      "transfer(address,uint256)": {
        "details": "See {IERC20-transfer}. Requirements: - `recipient` cannot be the zero address. - the caller must have a balance of at least `amount`."
      },
      "transferFrom(address,address,uint256)": {
        "details": "See {IERC20-transferFrom}. Emits an {Approval} event indicating the updated allowance. This is not required by the EIP. See the note at the beginning of {ERC20}. Requirements: - `sender` and `recipient` cannot be the zero address. - `sender` must have a balance of at least `amount`. - the caller must have allowance for ``sender``'s tokens of at least `amount`."
      }
    },
    "version": 1
  },
  "userdoc": {
    "kind": "user",
    "methods": {},
    "version": 1
  }
}