{
  "contractName": "TokenController",
  "abi": [
    {
      "inputs": [
        {
          "internalType": "contract Givingztoken",
          "name": "_token",
          "type": "address"
        }
      ],
      "stateMutability": "nonpayable",
      "type": "constructor"
    },
    {
      "inputs": [],
      "name": "token",
      "outputs": [
        {
          "internalType": "contract Givingztoken",
          "name": "",
          "type": "address"
        }
      ],
      "stateMutability": "view",
      "type": "function",
      "constant": true
    },
    {
      "inputs": [
        {
          "internalType": "address",
          "name": "_recepient",
          "type": "address"
        },
        {
          "internalType": "uint256",
          "name": "_amount",
          "type": "uint256"
        }
      ],
      "name": "tokentransfer",
      "outputs": [],
      "stateMutability": "nonpayable",
      "type": "function"
    }
  ],
  "bytecode": "0x608060405234801561001057600080fd5b506040516104673803806104678339818101604052810190610032919061008d565b806000806101000a81548173ffffffffffffffffffffffffffffffffffffffff021916908373ffffffffffffffffffffffffffffffffffffffff16021790555050610111565b600081519050610087816100fa565b92915050565b60006020828403121561009f57600080fd5b60006100ad84828501610078565b91505092915050565b60006100c1826100da565b9050919050565b60006100d3826100b6565b9050919050565b600073ffffffffffffffffffffffffffffffffffffffff82169050919050565b610103816100c8565b811461010e57600080fd5b50565b610347806101206000396000f3fe608060405234801561001057600080fd5b50600436106100365760003560e01c8063161c6aab1461003b578063fc0c546a14610057575b600080fd5b6100556004803603810190610050919061018a565b610075565b005b61005f610127565b60405161006c9190610245565b60405180910390f35b60008054906101000a900473ffffffffffffffffffffffffffffffffffffffff1673ffffffffffffffffffffffffffffffffffffffff1663a9059cbb83836040518363ffffffff1660e01b81526004016100d092919061021c565b602060405180830381600087803b1580156100ea57600080fd5b505af11580156100fe573d6000803e3d6000fd5b505050506040513d601f19601f8201168201806040525081019061012291906101c6565b505050565b60008054906101000a900473ffffffffffffffffffffffffffffffffffffffff1681565b60008135905061015a816102cc565b92915050565b60008151905061016f816102e3565b92915050565b600081359050610184816102fa565b92915050565b6000806040838503121561019d57600080fd5b60006101ab8582860161014b565b92505060206101bc85828601610175565b9150509250929050565b6000602082840312156101d857600080fd5b60006101e684828501610160565b91505092915050565b6101f881610260565b82525050565b610207816102a8565b82525050565b6102168161029e565b82525050565b600060408201905061023160008301856101ef565b61023e602083018461020d565b9392505050565b600060208201905061025a60008301846101fe565b92915050565b600061026b8261027e565b9050919050565b60008115159050919050565b600073ffffffffffffffffffffffffffffffffffffffff82169050919050565b6000819050919050565b60006102b3826102ba565b9050919050565b60006102c58261027e565b9050919050565b6102d581610260565b81146102e057600080fd5b50565b6102ec81610272565b81146102f757600080fd5b50565b6103038161029e565b811461030e57600080fd5b5056fea2646970667358221220dad75c096ca0aa9827d0ba88852a1f125c254aa52518632313857290259ff4be64736f6c63430008000033",
  "immutableReferences": {},
  "source": "pragma solidity ^0.8.0;\nimport \"./Givingztoken.sol\";\ncontract TokenController{\nGivingztoken public token;\n\nconstructor(Givingztoken _token){\n    token=_token;\n\n}\n\nfunction tokentransfer(address _recepient,uint _amount)public {\ntoken.transfer(_recepient,_amount);\n}\n\n\n}",
  "sourcePath": "/home/mandrake/WORK/POC/contracts/TokenController.sol",
  "compiler": {
    "name": "solc",
    "version": "0.8.0+commit.c7dfd78e.Emscripten.clang"
  },
  "schemaVersion": "3.4.1",
  "updatedAt": "2021-06-21T17:16:36.630Z",
  "networkType": "ethereum",
  "devdoc": {
    "kind": "dev",
    "methods": {},
    "version": 1
  },
  "userdoc": {
    "kind": "user",
    "methods": {},
    "version": 1
  }
}